:020000040800F2
:10000000000001209D3B0008AD130008AF1300085D
:10001000B1130008B3130008B51300080000000076
:10002000000000000000000000000000B7130008FE
:10003000B913000800000000BB130008BD1300083E
:10004000ED3B0008ED3B0008ED3B0008ED3B0008F0
:10005000ED3B0008ED3B0008ED3B0008ED3B0008E0
:10006000ED3B0008ED3B0008ED3B0008ED3B0008D0
:10007000ED3B0008ED3B0008ED3B0008ED3B0008C0
:10008000ED3B0008ED3B0008ED3B0008ED3B0008B0
:10009000ED3B0008ED3B0008ED3B0008ED3B0008A0
:1000A000ED3B0008ED3B0008ED3B0008ED3B000890
:1000B000ED3B00080000000000000000ED3B0008E0
:1000C000ED3B0008ED3B0008ED3B0008ED3B000870
:1000D000ED3B0008ED3B0008ED3B0008ED3B000860
:1000E000ED3B0008ED3B00080000000000000000B0
:1000F0000000000000000000000000000000000000
:1001000000000000ED3B000800000000ED3B00088F
:100110000000000000000000ED3B0008ED3B00087F
:10012000ED3B0008ED3B0008ED3B0008ED3B00080F
:10013000ED3B00080000000000000000000000008F
:10014000ED3B0008ED3B0008ED3B0008000000001F
:10015000ED3B0008ED3B0008ED3B0008ED3B0008DF
:10016000ED3B0008ED3B0008ED3B000800000000FF
:10017000ED3B0008ED3B000800000000000000001F
:10018000ED3B0008ED3B0008ED3B000800000000DF
:1001900010B5054C237833B9044B13B10448AFF3C1
:1001A00000800123237010BDB0000020000000007B
:1001B000AC88000808B5034B1BB103490348AFF3F3
:1001C000008008BD00000000B4000020AC880008DA
:1001D00001F0FF01102A2BDB10F0070F08D010F8F8
:1001E000013B013A8B422DD010F0070F42B3F6D1FC
:1001F000F0B441EA012141EA014122F007047FF015
:1002000000070023F0E80256083C85EA010586EA6B
:10021000010685FA47F5A3FA87F586FA47F6A5FAA7
:1002200087F68EB9EED1F0BC01F0FF0102F00702B3
:1002300032B110F8013B013A83EA010313B1F8D15E
:100240000020704701387047002D06BF354603383F
:10025000073815F0010F07D1013015F4807F02BF78
:10026000013015F4C03F0130F0BC0138704700BFC9
:1002700081F0004102E000BF83F0004330B54FEA57
:1002800041044FEA430594EA050F08BF90EA020FC4
:100290001FBF54EA000C55EA020C7FEA645C7FEA57
:1002A000655C00F0E2804FEA5454D4EB5555B8BF7A
:1002B0006D420CDD2C4480EA020281EA030382EAEB
:1002C000000083EA010180EA020281EA0303362D7D
:1002D00088BF30BD11F0004F4FEA01314FF4801C50
:1002E0004CEA113102D0404261EB410113F0004F62
:1002F0004FEA03334CEA133302D0524263EB430319
:1003000094EA050F00F0A780A4F10104D5F1200EB6
:100310000DDB02FA0EFC22FA05F2801841F1000111
:1003200003FA0EF2801843FA05F359410EE0A5F1E5
:1003300020050EF1200E012A03FA0EFC28BF4CF016
:10034000020C43FA05F3C01851EBE37101F00045CC
:1003500007D54FF0000EDCF1000C7EEB00006EEBD9
:100360000101B1F5801F1BD3B1F5001F0CD3490863
:100370005FEA30004FEA3C0C04F101044FEA4452BA
:1003800012F5800F80F09A80BCF1004F08BF5FEA41
:10039000500C50F1000041EB045141EA050130BD21
:1003A0005FEA4C0C404141EB010111F4801FA4F1C4
:1003B0000104E9D191F0000F04BF01460020B1FA19
:1003C00081F308BF2033A3F10B03B3F120020CDA51
:1003D0000C3208DD02F1140CC2F10C0201FA0CF02F
:1003E00021FA02F10CE002F11402D8BFC2F1200C94
:1003F00001FA02F120FA0CFCDCBF41EA0C0190404A
:10040000E41AA2BF01EB0451294330BD6FEA040492
:100410001F3C1CDA0C340EDC04F11404C4F120027D
:1004200020FA04F001FA02F340EA030021FA04F38F
:1004300045EA030130BDC4F10C04C4F1200220FAE6
:1004400002F001FA04F340EA0300294630BD21FA24
:1004500004F0294630BD94F0000F83F4801306BFEA
:1004600081F480110134013D4EE77FEA645C18BFDE
:100470007FEA655C29D094EA050F08BF90EA020F75
:1004800005D054EA000C04BF1946104630BD91EA6D
:10049000030F1EBF0021002030BD5FEA545C05D170
:1004A0004000494128BF41F0004130BD14F58004AF
:1004B0003CBF01F5801130BD01F0004545F0FE4123
:1004C00041F470014FF0000030BD7FEA645C1ABF58
:1004D000194610467FEA655C1CBF0B46024650EA8F
:1004E000013406BF52EA033591EA030F41F40021BB
:1004F00030BD00BF90F0000F04BF0021704730B541
:100500004FF4806404F132044FF000054FF0000115
:1005100050E700BF90F0000F04BF0021704730B5D6
:100520004FF4806404F1320410F0004548BF4042AB
:100530004FF000013EE700BF42004FEAE2014FEA00
:1005400031014FEA02701FBF12F07F4393F07F4FDB
:1005500081F06051704732F07F4208BF704793F0DE
:100560007F4F04BF41F40021704730B54FF46074F1
:1005700001F0004521F000411CE700BF50EA0102F4
:1005800008BF704730B54FF000050AE050EA01029D
:1005900008BF704730B511F0004502D5404261EB0D
:1005A00041014FF4806404F132045FEA915C3FF44E
:1005B000D8AE4FF003025FEADC0C18BF03325FEAEB
:1005C000DC0C18BF033202EBDC02C2F1200300FA9C
:1005D00003FC20FA02F001FA03FE40EA0E0021FAC1
:1005E00002F11444BDE600BF70B54FF0FF0C4CF4AF
:1005F000E06C1CEA11541DBF1CEA135594EA0C0F61
:1006000095EA0C0F00F0DEF82C4481EA030621EA9B
:100610004C5123EA4C5350EA013518BF52EA0335D6
:1006200041F4801143F4801338D0A0FB02CE4FF088
:100630000005E1FB02E506F00042E0FB03E54FF0B8
:100640000006E1FB03569CF0000F18BF4EF0010EB0
:10065000A4F1FF04B6F5007F64F5407404D25FEAAC
:100660004E0E6D4146EB060642EAC62141EA55515F
:100670004FEAC52040EA5E504FEACE2EB4F1FD0CA1
:1006800088BFBCF5E06F1ED8BEF1004F08BF5FEA1F
:10069000500E50F1000041EB045170BD06F00046D1
:1006A00046EA010140EA020081EA0301B4EB5C047E
:1006B000C2BFD4EB0C0541EA045170BD41F4801176
:1006C0004FF0000E013C00F3AB8014F1360FDEBF9B
:1006D000002001F0004170BDC4F10004203C35DA77
:1006E0000C341BDC04F11404C4F1200500FA05F3FA
:1006F00020FA04F001FA05F240EA020001F000429B
:1007000021F0004110EBD37021FA04F642EB060110
:100710005EEA430E08BF20EAD37070BDC4F10C043A
:10072000C4F1200500FA04F320FA05F001FA04F2FE
:1007300040EA020001F0004110EBD37041F10001EA
:100740005EEA430E08BF20EAD37070BDC4F12005F5
:1007500000FA05F24EEA020E20FA04F301FA05F25D
:1007600043EA020321FA04F001F0004121FA04F205
:1007700020EA020000EBD3705EEA430E08BF20EAD5
:10078000D37070BD94F0000F0FD101F0004640000F
:1007900041EB010111F4801F08BF013CF7D041EA91
:1007A000060195F0000F18BF704703F00046520095
:1007B00043EB030313F4801F08BF013DF7D043EA66
:1007C0000603704794EA0C0F0CEA135518BF95EA1C
:1007D0000C0F0CD050EA410618BF52EA4306D1D1A3
:1007E00081EA030101F000414FF0000070BD50EAC2
:1007F000410606BF1046194652EA430619D094EA4C
:100800000C0F02D150EA013613D195EA0C0F05D135
:1008100052EA03361CBF104619460AD181EA030189
:1008200001F0004141F0FE4141F470014FF0000041
:1008300070BD41F0FE4141F4780170BD70B54FF0DC
:10084000FF0C4CF4E06C1CEA11541DBF1CEA13555C
:1008500094EA0C0F95EA0C0F00F0A7F8A4EB05043E
:1008600081EA030E52EA03354FEA013100F0888035
:100870004FEA03334FF0805545EA131343EA1263FE
:100880004FEA022245EA111545EA10654FEA0026B3
:100890000EF000419D4208BF964244F1FD0404F56C
:1008A000407402D25B084FEA3202B61A65EB0305C8
:1008B0005B084FEA32024FF480104FF4002CB6EB85
:1008C000020E75EB030E22BFB61A754640EA0C0005
:1008D0005B084FEA3202B6EB020E75EB030E22BF45
:1008E000B61A754640EA5C005B084FEA3202B6EB86
:1008F000020E75EB030E22BFB61A754640EA9C0045
:100900005B084FEA3202B6EB020E75EB030E22BF14
:10091000B61A754640EADC0055EA060E18D04FEAD2
:10092000051545EA16754FEA06164FEAC30343EA72
:1009300052734FEAC2025FEA1C1CC0D111F4801F3F
:100940000BD141EA00014FF000004FF0004CB6E738
:1009500011F4801F04BF01430020B4F1FD0C88BFD7
:10096000BCF5E06F3FF6AFAEB5EB030C04BFB6EBE2
:10097000020C5FEA500C50F1000041EB045170BDD5
:100980000EF0004E4EEA113114EB5C04C2BFD4EB02
:100990000C0541EA045170BD41F480114FF0000E86
:1009A000013C90E645EA060E8DE60CEA135594EA02
:1009B0000C0F08BF95EA0C0F3FF43BAF94EA0C0F05
:1009C0000AD150EA01347FF434AF95EA0C0F7FF47A
:1009D00025AF104619462CE795EA0C0F06D152EACE
:1009E00003353FF4FDAE1046194622E750EA4106B2
:1009F00018BF52EA43067FF4C5AE50EA41047FF4C3
:100A00000DAF52EA43057FF4EBAE12E753B94AB992
:100A1000002908BF00281CBF4FF0FF314FF0FF3006
:100A200000F072B9ADF1080C6DE904CE00F006F8E3
:100A3000DDF804E0DDE9022304B070472DE9F0475A
:100A4000089E04468846002B4BD18A42154667D93A
:100A5000B2FA82F24AB1C2F1200701FA02F320FA97
:100A600007F7954047EA030894404FEA154E230CD8
:100A7000B8FBFEF71FFA85FC0EFB178843EA084314
:100A800007FB0CF1994209D9EB1807F1FF3080F010
:100A90001B81994240F21881023F2B445B1AA4B299
:100AA000B3FBFEF00EFB103344EA034400FB0CFCE6
:100AB000A44509D92C1900F1FF3380F00781A44522
:100AC00040F2048102382C4440EA0740A4EB0C04B5
:100AD00000271EB1D4400023C6E900433946BDE8D3
:100AE000F0878B4209D9002E00F0EB800027C6E981
:100AF000000138463946BDE8F087B3FA83F7002F86
:100B000047D18B4202D3824200F2FA80841A61EB11
:100B1000030301209846002EE0D0C6E90048DDE737
:100B200002B9FFDEB2FA82F2002A40F08F80491B40
:100B30004FEA154E1FFA85F80127B1FBFEFC230C86
:100B40000EFB1C1143EA014308FB0CF1994207D943
:100B5000EB180CF1FF3002D2994200F2CD808446AE
:100B6000591AA3B2B1FBFEF00EFB101443EA044481
:100B700008FB00F8A04507D92C1900F1FF3302D279
:100B8000A04500F2B6801846A4EB080440EA0C40E9
:100B90009FE7C7F1200CBB4022FA0CFE4EEA030E81
:100BA00001FA07F420FA0CF521FA0CF34FEA1E487B
:100BB0002543B3FBF8F92C0C08FB19331FFA8EFA06
:100BC00044EA034309FB0AF49C4202FA07F200FAE2
:100BD00007F10BD91EEB030309F1FF3080F087808A
:100BE0009C4240F28480A9F1020973441B1BADB200
:100BF000B3FBF8F008FB103345EA034400FB0AFAA4
:100C0000A24508D91EEB040400F1FF336BD2A245C4
:100C100069D90238744440EA0940A0FB0289A4EB78
:100C20000A044C45C2464B4654D351D0002E69D0DD
:100C3000B1EB0A0564EB030404FA0CFCFD40FC4034
:100C40004CEA0505C6E90054002747E7C2F1200336
:100C500020FA03F7954001FA02F021FA03F34FEA74
:100C6000154E3843010CB3FBFEF71FFA85F80EFB57
:100C7000173341EA034107FB08F38B4204FA02F4FD
:100C800007D9691807F1FF3C2FD28B422DD9023FBB
:100C90002944CB1A81B2B3FBFEF00EFB103341EABC
:100CA000034100FB08F38B4207D9691800F1FF3CB0
:100CB00017D28B4215D902382944C91A40EA07478E
:100CC0003BE73746304609E70746E7E61846FBE6C6
:100CD0004145ABD2B8EB020A69EB0E02013813466C
:100CE000A4E76046E9E7184695E76746D1E78146FD
:100CF0007CE702382C4447E7ACF1020C2B442FE789
:100D0000384608E73746E9E6704700BF10B50C469D
:100D1000114602280CD0032810D0012802D04FF031
:100D2000FF3004E003F50022204602F000FE10BD73
:100D300003F58032204602F0FAFDF8E70022204653
:100D400002F0F5FDF3E7000000B58FB04FF480230B
:100D5000089307934FF440330993104B0B934FF4D0
:100D600000230C934FF480330D934FF480530A9378
:100D700000238DF818300A4B03930A4B04930A4B57
:100D800005930A4B01930A4B029301AA03A906A8F3
:100D900003F02EFF0FB05DF804FB00BF0000010858
:100DA000D13D0008393C0008493C0008B50D000859
:100DB0000D0D000810B50C461146022811D003286D
:100DC00015D030B101460C4803F002F84FF0FF3067
:100DD00006E003F1006202F58032204602F010FEC8
:100DE00010BD03F58032204602F0B2FDF8E7002284
:100DF000204602F0ADFDF3E7D0880008FEE70000D2
:100E000010B50446114803F057F800F0C5F940B199
:100E10000F4803F051F802F0A1FB204600F01CFA45
:100E200030B90C4803F048F800F0B6F938B910BDF5
:100E3000094803F041F879210848FFF7DFFF084827
:100E400003F03AF881210548FFF7D8FFF088000841
:100E500014890008F8890008488900087889000882
:100E6000288A000800B5AFB001F0B0F8304AD2F8D7
:100E7000903023F01803C2F8903014231D930123FF
:100E80001F9323930022249260222592022227920C
:100E90002893299328232A9307232B932C922D926E
:100EA0001DA800F095FC78BB0F231893032319931A
:100EB00000231A931B931C93042118A800F062FFCF
:100EC00038BB012301930023099301A801F006FA1E
:100ED00020BB4FF4007001F031F820BB00F0FCFFA4
:100EE000144BA3FB0030800901F016FC042001F034
:100EF00029FC01F081FB002211464FF0FF3001F088
:100F0000D7FB2FB05DF804FB4FF490710A48FFF750
:100F100075FF4FF497710848FFF770FF40F23511E5
:100F20000548FFF76BFF4FF49E710348FFF766FF1C
:100F300000100240D34D62107889000810B586B0C9
:100F400000238DF817300493039301F067FFFFF738
:100F500089FF00F0A3F900F0D5F902F0DBFB2E4C7D
:100F600022684FF480512D4802F0E1FC22680A21EA
:100F7000684602F0EDFC6946294802F029FF29483D
:100F800002F09AFFFFF7E0FE28BB274802F094FF2B
:100F900003AA04A90DF1170003F06AFE039B13B91D
:100FA0004FF44033039370BB9DF81730012B1AD0D8
:100FB000ABB1022B2BD11D4802F07EFF4FF48032E3
:100FC0000499039800F016F908B3194802F074FF69
:100FD00002F0C4FA1BE0174802F06EFFD5E716488E
:100FE00002F06AFF13E0154802F066FF4FF400229A
:100FF0000499039800F0FEF848B1114802F05CFF34
:1010000002F0ACFA03E001460E4802F0E1FE03985C
:10101000FFF7F6FE06B010BD0C0000200000002017
:101020005C8A0008708A0008A88A0008E08A000824
:10103000F48A0008848A0008C88A0008288B0008FF
:101040003C8B0008708B0008F0B5ADF60C0D044623
:101050004FF4A0200190214602F084FBF0B907462E
:101060001C4E002C29DD2546B4F5006FA8BF4FF4B7
:1010700000653246294602A802F0C2FCB0B92E44EF
:1010800001AA294602A802F096FBD0B9641B2346A8
:10109000B8221149114802F09BFEE2E7A0220E4956
:1010A0000F4802F095FE6FF0030706E0AB220A49F5
:1010B0000C4802F08DFE6FF0040738460DF60C0D5B
:1010C000F0BDB3220449064802F082FE6FF0030728
:1010D000F3E700BF00000108AC8B00088C8D00080E
:1010E0003C8D0008648D0008F0B5ADF60C0D064689
:1010F0000C462248019002F0AFFC0746E0B9002CF4
:1011000036DD2546B4F5006FA8BF4FF400653246C2
:10111000294602A802F01CFCB0B92E4401AA2946B7
:1011200002A802F0D3FCC8B9641B23468D221449DF
:10113000144802F04DFEE2E773221149124802F012
:1011400047FE6FF0050715E002F024FD7F220C49F1
:101150000E4802F03DFE6FF002070BE002F01AFDB0
:1011600088220749084802F033FE6FF0050701E0C6
:1011700002F010FD38460DF60C0DF0BD0000010820
:10118000988B00088C8D0008AC8D0008D48D000869
:1011900080F308880847000008B5114B1968043B24
:1011A0001B6801F07F42B2F1006F0FD10D4A1A4067
:1011B000B2F1005F07D0CB220B490C4802F008FEC9
:1011C0006FF0070008BD1846FFF7E2FF0B46D1227B
:1011D0000549074802F0FCFD6FF00600F2E700BF8A
:1011E000040001080000F02FC08B0008F88B0008F5
:1011F000308C000870B582B00C46002812DB164611
:1012000000290FDBFFF720FF0546A8B9214630462D
:10121000FFF76AFF0546A0B1EC220B490B4802F02C
:10122000D7FD0EE000940346DE220749084802F08D
:10123000CFFD4FF0FF3504E0E5220349054802F0F9
:10124000C7FD284602B070BDD08B0008188D00087D
:10125000B08C0008F08C000810B5011E07DB4FF4BD
:101260008020FFF741FF044650B9204610BD0B46D1
:10127000F9220749074802F0ABFD4FF0FF34F4E7CD
:101280004FF480720249044802F0A2FDEDE700BF6E
:10129000E48B0008648C0008888C000886B0184B2A
:1012A000DA6C42F00402DA64DA6C02F004020192B1
:1012B000019ADA6C42F08002DA64DA6C02F08002A1
:1012C0000292029ADA6C42F00202DA64DA6C02F0FC
:1012D00002020392039ADA6C42F00102DA64DA6CD9
:1012E00002F001020492049ADA6C42F00802DA6415
:1012F000DB6C03F008030593059B06B0704700BF45
:101300000010024008B50C480C4B03604FF4E13369
:10131000436000238360C36003610C2242618361E8
:10132000C3610362436201F02CFD00B908BD442192
:101330000348FFF763FDF9E748010020003801404A
:10134000FC8D00080268124B9A4200D0704700B52D
:1013500087B003F558431A6E42F480421A661B6E3A
:1013600003F480430093009B4FF4C0630193022376
:10137000029300230393032304930723059301A9F6
:101380004FF0904000F02AFE07B05DF804FB00BF6C
:101390000038014010B514464FF6FF7392B2024870
:1013A00001F050FC204610BD480100207047FEE7C8
:1013B000FEE7FEE7FEE770477047704708B501F0AB
:1013C0003DFD01F0D0F908BD00B583B0214B1A6E88
:1013D00042F001021A661A6E02F001020092009AAF
:1013E0009A6D42F080529A659B6D03F08053019391
:1013F000019B032001F04AF9002211466FF00B0017
:1014000001F056F9002211466FF00A0001F050F980
:10141000002211466FF0090001F04AF9002211463E
:101420006FF0040001F044F9002211466FF0030050
:1014300001F03EF9002211466FF0010001F038F989
:10144000002211464FF0FF3001F032F903B05DF891
:1014500004FB00BF001002400F49D1F8883043F46C
:101460007003C1F888300D4B1A6842F001021A600F
:10147000002098601A6822F0A85222F410221A6004
:101480004FF48052DA601A6822F480221A60986160
:101490004FF000638B60704700ED00E000100240E9
:1014A00010B4054C616941F0010161610260436063
:1014B0005DF8044B704700BF00200240084A5369A2
:1014C00043F48023536172B6402351F8042B40F853
:1014D000042B013B13F0FF03F7D162B6704700BF46
:1014E00000200240094B5B69002B01DB00207047A4
:1014F000064B074A9A6002F188329A605B69002BBA
:1015000001DB002070470120704700BF002002402F
:1015100023016745034A536943F0004353610020A8
:10152000704700BF0020024038B5044601F08EFC31
:1015300005461F4B1B6913F4803F09D0B4F1FF3FF0
:10154000F7D001F083FC401BA042F2D3032029E036
:10155000174A136923F07F4323F47D0323F4705368
:1015600023F00503926902F00042134311D01149A0
:101570004A681A434A6013F0404203D00C49886914
:1015800002438A6133F040430DD0094A13610120C0
:1015900008E0074B1B6913F0010F06D0044B012232
:1015A0001A61002038BD0120FCE70020FAE700BFE7
:1015B00000200240140000202DE9F041284C24783E
:1015C000012C4AD0984617460D460446244B01226A
:1015D0001A704CF25030FFF7A7FF064608BB204BAD
:1015E00000225A601F4B1B6813F4806F1FD01D4AE6
:1015F000136823F480631360194B02221A77D4B165
:10160000631E012B1ED900244CF25030FFF78CFFD3
:10161000064624B1134A536923EA0404546101F0D5
:1016200007F80F4B00221A703046BDE8F0810C4BD2
:1016300000221A77E3E73A4643462846FFF730FF91
:101640000124E1E739462846FFF738FF022C01D094
:101650000024D9E74FF48024D6E70226E4E700BF50
:10166000140000200020024030B583B00546204B16
:101670009B6D13F0805F0BD000F058FCB0F5007F3D
:1016800017D0802D1FD82DD0702D2DD000211BE01C
:10169000174CA36D43F08053A365A36D03F08053F3
:1016A0000193019B00F042FCA36D23F08053A365DE
:1016B000E4E7802D03D9A02D03D9022104E0002105
:1016C00002E0012100E003210A4A136823F0070326
:1016D0000B431360136803F007038B4206D001200D
:1016E00003B030BD0221EFE70121EDE70020F7E76D
:1016F0000010024000200240314A9368D26802F094
:10170000030213F00C030AD00C2B06D0042B1FD0BD
:10171000082B20D00020014610E0012AF6D1284AEB
:10172000126812F0080F0CD1254AD2F89420C2F3A7
:101730000322244951F8221043B100200C2B0DD074
:1017400070471F4A1268C2F30312F2E70846F5E732
:101750001D480021F2E71D480021EFE7184BDA6829
:1017600002F00302DB68C3F302130133022A0AD03A
:10177000032A1AD0B1FBF3F3114AD068C0F3062054
:1017800000FB03F008E01048B0FBF3F30C4AD0680C
:10179000C0F3062000FB03F0094BDB68C3F3416391
:1017A00001335B00B0FBF3F0CAE70848B0FBF3F38A
:1017B000034AD068C0F3062000FB03F0ECE700BF4B
:1017C00000100240948E00080024F40000127A00F9
:1017D000002800F0C182F0B583B00446AC4B9D6890
:1017E00005F00C05DE6806F00306036813F0100F21
:1017F0005DD0E5B10C2D18D0A369002B00F0B780A7
:10180000A34A136843F00103136001F01FFB07466E
:101810009F4B1B6813F0020F40F0968001F016FBFF
:10182000C01B0228F4D90323A2E2012EE4D1984B75
:101830001B6813F0020F03D0A369002B00F08F8206
:10184000206A934B1B6813F0080F5DD0904B1B6808
:1018500003F0F00398425ED9FFF706FF002840F03E
:1018600080828B4B1A6842F008021A601A6822F0D4
:10187000F002216A0A431A605A6822F47F42E16941
:1018800042EA01225A60FFF737FF814B9B68C3F39E
:101890000313804AD35C03F01F03D8407E4B1860CB
:1018A000002001F0A1FA0346002840F0618223687D
:1018B00013F0010F7AD0082D6FD00C2D6BD0636818
:1018C000B3F5803F00F09180B3F5A02F00F0938036
:1018D0006F4B1A6822F480321A601A6822F4802250
:1018E0001A606368002B00F0938001F0AFFA07469E
:1018F000674B1B6813F4003F58D101F0A7FAC01BD7
:101900006428F5D9032333E2614BD3F894301B09E3
:1019100003F0F0039EE75E4B1A6842F008021A607B
:101920001A6822F0F002216A0A431A605A6822F407
:101930007F42E16942EA01225A60206AFFF794FE81
:101940000028A0D0012313E2514B1A6842F008028C
:101950001A601A6822F0F002216A0A431A605A6873
:1019600022F47F42E16942EA01225A609FE7484A35
:10197000136823F00103136001F068FA0746444B33
:101980001B6813F0020F92D001F060FAC01B02280E
:10199000F5D90323ECE1032E91D13D4B1B6813F4E1
:1019A000003F03D06368002B00F0DD81236813F053
:1019B000020F4FD0042D3CD00C2D38D0E368002B03
:1019C00075D0334A136843F48073136001F03EFA14
:1019D00006462F4B1B6813F4806F5FD101F036FA77
:1019E000801B0228F5D90323C2E1294A136843F476
:1019F0008033136075E703F18043A3F53C331A6825
:101A000042F480221A601A6842F480321A6068E751
:101A100001F01CFA07461E4B1B6813F4003FC5D0AB
:101A200001F014FAC01B6428F5D90323A0E1022EAB
:101A3000C4D1174B1B6813F4806F03D0E368002BED
:101A400000F09381124A536823F0F853216943EA66
:101A500001635360236813F0080F53D06369002BB0
:101A600039D00B4AD2F8943043F00103C2F89430D5
:101A700001F0ECF90646064BD3F8943013F0020F50
:101A800040D101F0E3F9801B0228F4D903236FE170
:101A9000001002407C8E000810000020B74A5368F6
:101AA00023F0F853216943EA01635360D2E7B34A54
:101AB000136823F48073136001F0C8F90646AF4B36
:101AC0001B6813F4806FC5D001F0C0F9801B022899
:101AD000F5D903234CE1A94AD2F8943023F001034D
:101AE000C2F8943001F0B2F90646A44BD3F8943012
:101AF00013F0020F06D001F0A9F9801B0228F4D9D7
:101B0000032335E1236813F0040F7AD09B4B9B6DC0
:101B100013F0805F0BD1994B9A6D42F080529A6519
:101B20009B6D03F080530193019B012600E000268A
:101B3000934B1B6813F4807F26D0A368012B37D00A
:101B4000052B3DD08D4BD3F8902022F00102C3F835
:101B50009020D3F8902022F00402C3F89020A368CC
:101B6000002B3BD001F072F90746844BD3F890303C
:101B700013F0020F44D101F069F9C01B41F2883320
:101B80009842F2D90323F3E07D4A136843F480734B
:101B9000136001F05BF90746794B1B6813F4807FF3
:101BA000CBD101F053F9C01B0228F5D90323DFE0A4
:101BB000724AD2F8903043F00103C2F89030CEE779
:101BC0006E4BD3F8902042F00402C3F89020D3F873
:101BD000902042F00102C3F89020C0E701F036F9EE
:101BE0000746664BD3F8903013F0020F08D001F08F
:101BF0002DF9C01B41F288339842F2D90323B7E094
:101C0000E6B9236813F0200F35D0636AE3B15B4A6D
:101C1000D2F8983043F00103C2F8983001F016F979
:101C20000646564BD3F8983013F0020F23D101F03B
:101C30000DF9801B0228F4D9032399E04F4A936DD4
:101C400023F080539365DCE74C4AD2F8983023F0B8
:101C50000103C2F8983001F0F9F80646474BD3F873
:101C6000983013F0020F06D001F0F0F8801B022824
:101C7000F4D903237CE0A36A002B78D00C2D7AD012
:101C8000022B23D03D4B1A6822F080721A601B6829
:101C900013F0006F04D1394AD36823F00303D360F3
:101CA000364AD36823F0887323F48033D36001F07D
:101CB000CDF80446314B1B6813F0007F4AD001F089
:101CC000C5F8001B0228F5D9032351E02B4A1368FD
:101CD00023F08073136001F0B9F80546274B1B68A9
:101CE00013F0007F06D001F0B1F8401B0228F5D9AF
:101CF00003233DE0236B5A1E636B1B0243EA02136E
:101D0000E26A1343E26B5208013A43EA4253226CFF
:101D10005208013A43EA4263A26B43EAC263174A9C
:101D2000D360136843F080731360D36843F080730B
:101D3000D36001F08BF80446104B1B6813F0007F52
:101D400006D101F083F8001B0228F5D903230FE028
:101D500000230DE000230BE0012318467047012308
:101D600006E0012304E0012302E0012300E0002358
:101D7000184603B0F0BD0123FAE700BF001002408F
:101D800000700040002800F09A8070B504464E4B69
:101D90001B6803F007038B420CD24B4A136823F0F5
:101DA00007030B431360136803F007038B4201D052
:101DB000012070BD0D46236813F0010F39D0636810
:101DC000032B09D0022B26D063BB404A126812F0C5
:101DD000020F06D10120ECE73C4A126812F0007FA6
:101DE0006FD03A498A6822F0030213438B6001F0F6
:101DF0002DF80646354B9B6803F00C036268B3EB85
:101E0000820F16D001F022F8801B41F288339842ED
:101E1000F0D90320CDE72D4A126812F4003FE0D13B
:101E20000120C6E7294A126812F4806FD9D1012037
:101E3000BFE7236813F0020F06D0244A936823F00B
:101E4000F003A1680B4393601F4B1B6803F007036B
:101E5000AB420CD91C4A136823F007032B431360D1
:101E6000136803F00703AB4201D00120A1E7236808
:101E700013F0040F06D0154A936823F4E063E16879
:101E80000B439360236813F0080F07D00F4A936841
:101E900023F46053216943EAC1039360FFF72CFCEC
:101EA0000A4B9B68C3F30313094AD35C03F01F0377
:101EB000D840084B1860002000F096FF79E7012019
:101EC0007047012075E700BF00200240001002406B
:101ED0007C8E000810000020014B1868704700BF7E
:101EE0001000002008B5FFF7F7FF054B9B68C3F310
:101EF0000223044AD35C03F01F03D84008BD00BF8F
:101F0000001002408C8E000808B5FFF7E5FF054B76
:101F10009B68C3F3C223044AD35C03F01F03D84079
:101F200008BD00BF001002408C8E0008024B1868EC
:101F300000F4C060704700BF00700040B0F5007F43
:101F40000FD01F4B1B6803F4C063B3F5806F34D010
:101F50001B4A136823F4C06343F4806313600020BA
:101F60007047174B1B6803F4C063B3F5007F22D0A2
:101F7000134A136823F4C06343F400731360114BD6
:101F80001A68322303FB02F30F4AA2FB03239B0CC4
:101F9000013300E0013B0A4A526912F4806F01D01C
:101FA000002BF7D1064B5B6913F4806F01D1002041
:101FB000704703207047002070470020704700BF23
:101FC000007000401000002083DE1B43024A1368AB
:101FD00043F480731360704700700040F0B482B027
:101FE000002336E0042400E00024B4403C430235E2
:101FF0005B4E46F825405B4C2568D44304EA050651
:102000004F6817F4803F01D042EA0506554D2E6017
:102010006D6804EA05064F6817F4003F01D042EAF4
:102020000506504D6E60AD6804EA05064F6817F46A
:10203000801F01D042EA05064A4DAE60ED682C4093
:102040004E6816F4001F01D042EA0504454AD460E8
:1020500001330A6832FA03F47ED001249C40224006
:10206000F6D04D68022D01D0122D10D1DE080836B1
:1020700050F826C003F00705AF000F25BD402CEA3D
:10208000050C0D69BD4045EA0C0540F82650066870
:102090005F000325BD40ED4305EA060C4E6806F0DF
:1020A0000306BE4046EA0C0606604E6806F1FF3C99
:1020B000BCF1010F03D9112E01D0122E10D1866868
:1020C00005EA060CCE68BE4046EA0C068660466805
:1020D00026EA04044E68C6F300169E402643466076
:1020E000C46825408C68BC402C43C4604C6814F024
:1020F000805FADD01C4C256E45F001052566246E31
:1021000004F001040194019C9D08AE1C144C54F889
:10211000267003F00304A6000F24B44027EA040746
:10212000B0F1904F3FF460AF104CA0420ED004F5D8
:102130008064A0420CD004F58064A0420AD004F56B
:102140008064A0423FF44EAF07244EE701244CE7E1
:1021500002244AE7032448E702B0F0BC704700BFFE
:10216000000001400004014000100240000400484B
:10217000F8B5594BDB6813F0030F18D0564BDB68EA
:1021800003F003030268934202D001252846F8BDFC
:10219000002A00F09F80504BDB68C3F30213013329
:1021A0004268934201D00125F0E700251AE0036858
:1021B000022B58D0032B5DD0012B01D001250FE05D
:1021C000454A126812F0020F60D0434DEA6822F0CF
:1021D00073024468013C43EA04131343EB60002597
:1021E000002DD3D10F4604463B4A136823F0806389
:1021F000136000F02BFE0646374B1B6813F0006F90
:1022000005D000F023FE801B0228F5D90325002D00
:10221000BCD1002F3CD130490B6923F0784323F423
:10222000FE43A068E268D20642EA002213430B6133
:10223000294A136843F08063136000F007FE0646E6
:10224000254B1B6813F0006F05D100F0FFFD801BCC
:102250000228F5D90325002D98D11F4A1369A169D9
:102260000B43136192E71C4A126812F4806FACD1E1
:102270000125B5E7184A126812F4003FA5D1164AA5
:10228000126812F4802FA0D10125A9E70125A7E744
:10229000012F0FD01048026922F0C06222F4FE42E2
:1022A000A16863695B08013B5B0643EA01231343B2
:1022B0000361BDE70848026922F4C00222F4FE422D
:1022C000A16823695B08013B5B0543EA01231343D3
:1022D0000361ADE7012559E7001002402DE9F04107
:1022E00082B00446036813F4006F26D0436CB3F544
:1022F000000F06D0B3F5400F1DD09BB10126374625
:102300001DE0BB4AD36843F48033D3600027B84A4A
:10231000D2F8883023F44003616C0B43C2F8883054
:1023200000260CE000210430FFF722FF07460028BA
:10233000EDD0064603E00027E9E70026374623688C
:1023400013F4003F6BD0AA4B9B6D13F0805F4CD110
:10235000A74B9A6D42F080529A659B6D03F08053B3
:102360000193019B4FF00108A24A136843F4807364
:10237000136000F06BFD05469E4B1B6813F4807FD5
:1023800005D100F063FD401B0228F5D90327002F7B
:1023900040D1974BD3F8903013F4407315D0A26D11
:1023A0009A4212D0924AD2F8903023F44073D2F875
:1023B000901041F48031C2F89010D2F8901021F4BE
:1023C0008031C2F89010C2F8903013F0010F0FD195
:1023D000002F40F0E380864AD2F8903023F4407317
:1023E000A16D0B43C2F8903015E04FF00008BBE739
:1023F00000F02CFD05467E4BD3F8903013F0020F11
:10240000E6D100F023FD401B41F288339842F2D917
:102410000327DDE73E46B8F1000F40F0C180236896
:1024200013F0010F08D0724AD2F8883023F003036A
:10243000216A0B43C2F88830236813F0020F08D0DA
:102440006B4AD2F8883023F00C03616A0B43C2F860
:102450008830236813F0040F08D0654AD2F888301A
:1024600023F03003A16A0B43C2F88830236813F0CD
:10247000200F08D05E4AD2F8883023F44063E16A26
:102480000B43C2F88830236813F4007F08D0584A01
:10249000D2F8883023F44023E16B0B43C2F8883034
:1024A000236813F4806F08D0514AD2F8883023F49F
:1024B0004013216C0B43C2F88830236813F0400F9F
:1024C00008D04B4AD2F8883023F44053216B0B4399
:1024D000C2F88830236813F0800F08D0444AD2F83D
:1024E000883023F44043616B0B43C2F88830236883
:1024F00013F4807F08D03E4AD2F8883023F440336A
:10250000A16B0B43C2F88830236813F4002F0FD05F
:10251000374AD2F8883023F04063A16C0B43C2F8ED
:102520008830A36CB3F1006F40D0B3F1806F42D01C
:10253000236813F4802F0FD02D4AD2F8883023F06F
:102540004063E16C0B43C2F88830E36CB3F1006F79
:1025500039D0B3F1806F3BD0236813F4804F0CD097
:10256000234AD2F8883023F04053216D0B43C2F840
:102570008830236DB3F1805F32D0236813F4004FAD
:1025800008D01B4AD2F8883023F08043616D0B439A
:10259000C2F88830304602B0BDE8F0813E463AE7E6
:1025A000134A936D23F08053936538E7D36843F45F
:1025B0008013D360BCE70121201DFFF7D9FD00285F
:1025C000B6D00646B4E7D36843F48013D360C3E7BC
:1025D0000121201DFFF7CCFD0028BDD00646BBE73A
:1025E0000221201DFFF7C4FD0028C6D00646C4E71F
:1025F0000010024000700040024A136843F00403D8
:102600001360704700100240084B5A6922F4FF62C1
:10261000C00000F4FF6002435A615A6942F00202AE
:102620005A615A6942F480325A6170470020024070
:10263000144B1B7FDBB2012B01D0032B0CD1124AB0
:10264000116841F400611160116821F400611160AA
:10265000116841F400711160023BDBB2012B03D918
:10266000084B00221A777047074B1A6842F48052D1
:102670001A601A6822F480521A601A6842F4806262
:102680001A60EDE71400002000200240074AD368DA
:1026900023F4E0631B041B0C000200F4E060184309
:1026A00040F0BF6040F40030D060704700ED00E0C3
:1026B00030B4174BDB68C3F30223C3F10704042CC7
:1026C00028BF04241D1D062D18D9033B4FF0FF35EC
:1026D00005FA04F421EA0401994005FA03F322EA19
:1026E0000303194300280BDB0901C9B200F1604064
:1026F00000F5614080F8001330BC70470023E5E727
:1027000000F00F000901C9B2024B1954F4E700BFF1
:1027100000ED00E014ED00E00138B0F1807F0AD256
:10272000064B5860064AF02182F82310002098607A
:1027300007221A6070470120704700BF10E000E0D8
:1027400000ED00E0042805D0054A136823F00403D7
:1027500013607047024A136843F004031360704724
:1027600010E000E0704708B5FFF7FCFF08BD00006F
:102770002DE9F04804460168836802691343426901
:102780001343C269134308689E4A024013430B6017
:102790002268536823F44053E1680B435360A169F6
:1027A0002268994B9A4201D0236A1943936823F413
:1027B00030630B4393602368944A93421FD0944A3A
:1027C000934230D0934A934246D08F4A934259D095
:1027D00010258D4A934276D0E369B3F5004F00F09F
:1027E000ED80082D00F28981DFE815F049015F01D5
:1027F0006901870174018701870187017E0102F564
:102800005842D2F8882002F00302032A09D8DFE8F0
:1028100002F0020452060125DBE70425D9E708256A
:10282000D7E71025D5E702F5E632D2F8882002F086
:102830000C020C2A0ED8DFE802F0070D0D0D090D71
:102840000D0D400D0D0D0B000025C2E70425C0E75E
:102850000825BEE71025BCE702F5E432D2F888204F
:1028600002F03002102A09D005D9202A27D0302AB8
:1028700006D10825ADE71AB90025AAE70425A8E77F
:102880001025A6E702F5C832D2F8882002F440628B
:10289000B2F5806F0BD007D9B2F5006F11D0B2F549
:1028A000406F06D1082594E71AB9002591E7042561
:1028B0008FE710258DE702258BE7022589E70225A2
:1028C00087E7022585E7082D00F21A81DFE815F079
:1028D0000C0018011400180111001801180118014A
:1028E00009004FF4004008E0FFF7FCFA28B9002087
:1028F000D6E0FEF701FFF9E74748626802EB4203C2
:10290000834200F2FF80B0EB023F00F2FD80082D11
:1029100051D8DFE805F005502050305050504300AA
:10292000FFF7E0FA0025070E0602626850082B4602
:1029300016EB000B47F1000C58466146FEF766F8AF
:1029400003462846A3F54071344A914200F2DE80E6
:102950002268D360A4E0560800252B46DFF8C0B0FB
:102960004FF0000C1BEB06004CF10001FEF74EF897
:1029700003462846E6E7FEF7BFFE0025070E0602DF
:10298000626850082B4616EB000B47F1000C5846C6
:102990006146FEF73BF803462846D3E75008002778
:1029A00000252B4610F5000047F10001FEF72EF838
:1029B00003462846C6E701200023C3E7082D5BD85D
:1029C000DFE805F005303B5A465A5A5A5100FFF7E6
:1029D00089FA6268530803EB4003B3FBF2F39BB23E
:1029E0000020A3F110014FF6EF72914200F29080A7
:1029F0009AB222F00F02C3F3420313432268D3605A
:102A00004EE000BFF369FFEF008000400038014056
:102A100000440040004800400024F400FFFC0F0088
:102A2000000024F4FFF770FA6268530803EB4003D8
:102A3000B3FBF2F39BB20020D3E76268530803F1C3
:102A4000F47303F59043B3FBF2F39BB20020C8E7A5
:102A5000FEF752FE6268530803EB4003B3FBF2F348
:102A60009BB20020BDE76268530803F58033B3FBD7
:102A7000F2F39BB20020B4E701200023B1E7FFF797
:102A800031FA636800EB5302B2FBF3F292B200201A
:102A9000A2F110014FF6EF7399423BD82368DA6038
:102AA000002222666266BDE8F088FFF72DFA6368AF
:102AB00000EB5302B2FBF3F292B20020E8E7636846
:102AC0005A0802F5740202F51052B2FBF3F292B208
:102AD0000020DDE7FEF710FE636800EB5302B2FB57
:102AE000F3F292B20020D3E763685A0802F500427D
:102AF000B2FBF3F292B20020CAE701200022C7E73E
:102B00000120CDE70120CBE70120C9E70120C7E77D
:102B10000120C5E70120C3E7436A13F0010F06D087
:102B20000268536823F40033816A0B435360436A9D
:102B300013F0020F06D00268536823F48033C16A91
:102B40000B435360436A13F0040F06D002685368C6
:102B500023F48023016B0B435360436A13F0080F87
:102B600006D00268536823F40043416B0B43536063
:102B7000436A13F0100F06D00268936823F4805361
:102B8000816B0B439360436A13F0200F06D00268F9
:102B9000936823F40053C16B0B439360436A13F0B3
:102BA000400F0AD00268536823F48013016C0B4372
:102BB0005360036CB3F5801F0BD0436A13F0800F92
:102BC00006D00268536823F40023816C0B435360E2
:102BD00070470268536823F4C003416C0B43536091
:102BE000EBE72DE9F04105460F4616469846069C50
:102BF0002B68DB6937EA03030CBF01230023B342D0
:102C00001DD1B4F1FF3FF3D02CB100F01FF9A0EBC0
:102C10000800A042ECD92A68136823F4D07313602B
:102C20002A68936823F001039360202385F87130AC
:102C300085F87230002385F87030032000E0002012
:102C4000BDE8F0812DE9F04182B01E4690F8713068
:102C5000DBB2202B4ED104460D46904600294ED0C3
:102C6000002A4ED090F87030012B4CD0012380F810
:102C7000703000234367212380F8713000F0E6F8BC
:102C80000746A4F85080A4F8528009E023682A7807
:102C90001A850135B4F85230013B9BB2A4F852308A
:102CA000B4F852309BB2ABB100963B460022802173
:102CB0002046FFF796FF40BBA368B3F5805FE5D1E0
:102CC0002369002BE2D1226835F8023BC3F30803E5
:102CD0001385DFE700963B46002240212046FFF7A0
:102CE00080FF034698B9202284F87120002284F8DE
:102CF000702000E00223184602B0BDE8F0810123F5
:102D0000F9E70123F7E70223F5E70323F3E70323BA
:102D1000F1E730B583B004460023436700F096F82E
:102D2000054623681B6813F0080F0ED123681B6843
:102D300013F0040F17D1202384F8713084F8723017
:102D4000002084F8700003B030BD6FF07E43009324
:102D5000034600224FF400112046FFF742FF0028EF
:102D6000E4D00320EFE76FF07E4300932B46002270
:102D70004FF480012046FFF734FF0028DBD003200A
:102D8000E1E778B310B5044690F871300BB3242313
:102D900084F871302268136823F001031360204621
:102DA000FFF7E6FC012813D0636ABBB922685368B9
:102DB00023F4904353602268936823F02A039360BE
:102DC0002268136843F0010313602046FFF7A1FF58
:102DD00010BD80F87030FEF7B5FAD8E72046FFF74F
:102DE0009BFEE3E70120704710B50446094B1868C5
:102DF000094BA3FB00308009FFF78EFC08B10120CE
:102E000010BD002221464FF0FF30FFF751FC00209B
:102E1000F6E700BF10000020D34D621010B503206C
:102E2000FFF734FC0020FFF7DFFF10B1012420463C
:102E300010BD0446FEF7C8FAF9E70000024A13681D
:102E400001331360704700BFC0010020014B1868B8
:102E5000704700BFC0010020F0B44B6A33B1B2F13B
:102E6000406F03D08B6A0468013B23618C69002C9E
:102E70006ED00E6A002E3BD003688C68DC61CC6992
:102E8000F4B1CB6A0D6B2B434D6B2B434D6A2B4337
:102E90004D6943EA85430D692B430D6A2B43CD6889
:102EA0002B4323438C6923430C6823430468134357
:102EB0006361B2F1406F19D003684A689A6115E006
:102EC000CB6A0D6B2B434D6B2B434D6A2B434D69E6
:102ED00043EA85430D692B430D6A2B4323438C69D9
:102EE00023430C68234301681A434A61F0BC7047CE
:102EF000CD69D5B1CB6A0F6B3B434F6B3B434F6AF8
:102F00003B434F6943EA87433343CE6833432B4304
:102F100023430C682343046813436361B2F1406F99
:102F2000E4D003684A689A61E0E7CB6A0F6B3B43E1
:102F30004F6B3B434F6A3B434F6943EA87433343FD
:102F40002B4323430C68234301681A434A61CDE7AE
:102F50000E6A002E36D003688C68DC61CD69E5B15D
:102F6000CB6A0C6B23434C6B23434C6A23434C6961
:102F700043EA84430C6923430C6A2343CC6823430C
:102F80002B438C692343046813436361B2F1406FA0
:102F9000ACD003684A689A61A8E7CC6A0B6B1C4303
:102FA0004B6B1C434B6A1C434B6944EA83440B69DB
:102FB0001C430B6A1C432C438D692C43036822433A
:102FC0005A6193E7CF69CFB1CD6A0B6B1D434B6B51
:102FD0002B434D6A2B434D6943EA85433343CD6808
:102FE0002B433B432343046813436361B2F1406FB7
:102FF0003FF47CAF03684A689A6177E7D1F824C050
:10300000BCF1000F3FF472AFCD6A0B6B1D434B6BED
:103010001D434CEA0503496943EA814333433B437B
:10302000234301681A434A6160E72DE9F0410546F0
:103030000F4616469846069C2B689B683B4214BF79
:1030400001230023B34213D0B4F1FF3FF4D0FFF7C4
:10305000FDFEA0EB0800A04201D8002CECD1042317
:1030600085F841306B6C43F001036B64012000E094
:103070000020BDE8F0812DE9F04182B004460F4602
:103080001646FFF7E3FE94F84030DBB2012B3BD04D
:103090000546012384F8403094F84130DBB2012B1F
:1030A00008D04FF00208002384F84030404602B0B8
:1030B000BDE8F08100226264022384F8413000966A
:1030C000034620212046FFF7B0FF80460028EAD1C2
:1030D000002239462046FFF7BFFE7B6A1BB1012361
:1030E00084F84130DFE700962B460122022120467A
:1030F000FFF79BFF80460028D5D123680222DA60C3
:10310000012384F84130CEE74FF00208CEE72DE9E5
:10311000F04182B0044688461746FFF797FE2568BF
:1031200094F84030DBB2012B54D00646012384F8DA
:10313000403094F84130DBB2012B07D0022200234B
:1031400084F84030104602B0BDE8F081002363648B
:10315000B8F1000F38D0122384F841302B690133C5
:10316000E3622B690133A362C4F824806B6923F006
:1031700040636B610022E36A9BB1009733460122F2
:1031800004212046FFF751FF024650B9636A1B78BD
:1031900085F82030636A01336362E36A013BE362CE
:1031A000E9E71AB1012384F84130C8E700973346B4
:1031B000012202212046FFF738FF02460028F1D104
:1031C00023680221D960EDE7636C43F00803636470
:1031D0000122B4E70222B5E72DE9F04182B00446AE
:1031E00088461746FFF732FE2568AA6994F84030F2
:1031F000DBB2012B58D00646012384F8403094F806
:103200004130DBB2012B07D00222002384F840308A
:10321000104602B0BDE8F08100236364B8F1000FEE
:103220003CD0222384F841302B690133A3632B69FE
:1032300001336363C4F830806B6923F0406343F06B
:1032400080636B6123689A610022A36B9BB1009736
:103250003346012206212046FFF7E7FE024650B919
:10326000236B95F820101970236B01332363A36B34
:10327000013BA363E9E71AB1012384F84130C4E7B5
:1032800000973346012202212046FFF7CEFE024678
:103290000028F1D123680221D960EDE7636C43F087
:1032A000080363640122B0E70222B1E7816470473A
:1032B00030B583B00446FFF7C9FD002C56D0054653
:1032C00094F84030DBB2012B52D0012384F8403017
:1032D00094F84130002B3ED021680B6823F47063D2
:1032E000A268013A43EA02230B60A36C00932B46C9
:1032F000002220212046FFF798FE014628BB2068C7
:10330000036823F07F4323F0D0036568E26842EA54
:103310000562E5692A43256A2A431343036020684E
:103320004268144B13402569626942EA0542A56967
:103330002A43134343602268136843F00103136078
:1033400000236364012384F84130002384F8403073
:10335000084603B030BD84F84030204600F008F93C
:1033600041F288312046FFF7A1FFB5E70121EFE7E1
:103370000221EDE7FEF8E0FF40B102684AB1436880
:1033800053B107490A604B60002070474FF0FF308F
:1033900070474FF0FF3070474FF0FF30704700BF6D
:1033A000CC000020F0B5ADF5017D11B30E46002A2A
:1033B00022DBB2F5807F22DC14460546134B1B68E6
:1033C0004FF40071684698470746D8B92DB1012DD2
:1033D00009D038460DF5017DF0BD224669463046DC
:1033E00000F03AFCF5E7224640A9304600F034FCF4
:1033F000EFE74FF0FF37ECE74FF0FF37E9E74FF02B
:10340000FF37E6E74FF0FF37E3E700BFCC000020CF
:1034100049B370B5ADF5007D0E46002A26DBB2F546
:10342000807F26DC14460546154B1B684FF400715F
:103430006846984700BB55B1012D0ED0104B5B6814
:103440004FF40071684698470DF5007D70BD224627
:103450003146684600F000FCF0E72246314640A8BD
:1034600000F0FAFBEAE74FF0FF3070474FF0FF3013
:10347000EAE74FF0FF30E7E74FF0FF30E4E700BF47
:10348000CC00002010B5064C14222146002001F08B
:1034900075FB6061182221460020FFF7B9FF10BDBF
:1034A000D400002038B518220D490020FFF77AFF1C
:1034B000044608B1204638BD094D1422294601F0C2
:1034C0005DFB6B698342F5D000226A70022129708E
:1034D000EA606A60AA60FFF7D5FF0446EAE700BF2A
:1034E000D400002098B110B4044610480078207031
:1034F00011B10E484068086012B10C49896811602A
:1035000013B10A4A52781A705DF8044B704711B132
:1035100006484068086012B10449896811601BB10F
:10352000024A52781A707047704700BFD4000020DA
:1035300008B5034B58705960FFF7A4FF08BD00BFE2
:10354000D400002010B1044AD268026011B1024BCD
:103550001B690B60704700BFD400002008B5034B07
:1035600003225A70FFF78EFF08BD00BFD400002071
:103570000268124B9A4200D0704700B587B003F141
:10358000204303F500331A6D42F480721A651B6DF7
:1035900003F480730093009B40F6034301930223DE
:1035A000029300230393032304930A23059301A9A1
:1035B0000348FEF713FD07B05DF804FB001000A000
:1035C0000004004800B58FB0009001910592069369
:1035D000109B0793119B0393129B099300230D9358
:1035E00008930B930C9341F2883269460248FFF727
:1035F00042FD0FB05DF804FBC401002000B585B0AA
:1036000000210291019100914FF480730A46062037
:10361000FFF7D8FF05B05DF804FB000008B5064BC6
:103620001A680139116141F2883201461846FFF7E4
:10363000D3FD00B1012008BDC401002000B587B052
:1036400000238DF817304FF0807302930021019111
:1036500000914FF480730A460520FFF7B3FF012164
:103660000DF11700FFF7DAFF9DF8173013F0010F87
:10367000E9D107B05DF804FB08B5064B1A680139BB
:10368000116141F2883201461846FFF740FD00B152
:10369000012008BDC40100200AB90020704770B5A0
:1036A00084B015460E460446FFF7A8FF4FF080731E
:1036B00002934FF4005301934FF4806300934FF44F
:1036C0008073002231460220FFF77CFF2946204606
:1036D000FFF7D2FFFFF7B2FF002004B070BD10B5B6
:1036E00084B00446FFF78AFFFFF7A8FF002202928A
:1036F0004FF4005301934FF4806300934FF48073B1
:1037000021462020FFF75EFF0446FFF797FF204683
:1037100004B010BD08B51048104B03600022426091
:10372000042383601023C3604FF0807393FAA3F3E4
:10373000B3FA83F3013B03614FF440734361826149
:10374000C2610262FFF7B4FD00B908BDFE21044862
:10375000FDF754FBF9E700BFC4010020001000A0F2
:10376000C48E000800291DDBB0F5000F1DD20144F6
:10377000B1F5000F1CD238B5013921F47F6525F071
:103780000F0520F47F6424F00F04AC4208D82046D3
:10379000FFF7A5FFB0F1FF3F03D004F58054F4E735
:1037A000002038BD4FF0FF3070474FF0FF307047BA
:1037B0004FF0FF307047002800F0AA802DE9F04F4D
:1037C00083B00D4690460646002A00F0A4800029EA
:1037D000C0F2A4801468B4F5000F80F0A2800B1929
:1037E000B3F5000F80F0A080E2B25742FFB28946E5
:1037F00000291CDB4FEA29296B425FFA85FADBB20C
:1038000058BFC3F1000A6ABBB9F1000F12D00027FC
:103810004F4517DA4FF48072214606EB0720FFF779
:103820003BFF00281BDB04F580740137F0E701F152
:10383000FF09DFE72A4621463046FFF72DFF002823
:1038400008DA0CE05246214606EB0920FFF724FF78
:10385000002804DBD8F800301D44C8F8005003B03D
:10386000BDE8F08FB9F1000F1AD1574510DAAAEB75
:10387000070A3A4621463046FFF70EFF0028EEDBE6
:103880005246E119F019FFF707FF0028E2DAE6E7F0
:103890002A4621463046FFF7FFFE0028DADADEE747
:1038A000ED1BAA46002D23DB4FEA2A2A6B42EAB21F
:1038B000DBB258BF5A4201923A4621463046FFF7E2
:1038C000EBFE0028CBDBBB463C444FF00009D14562
:1038D00011DA0BEB09204FF4807221463044FFF7D8
:1038E000DBFE0028BBDB04F5807409F10109EEE77B
:1038F00005F1FF0AD8E7019B002BABD007EB0A20AC
:103900001A4621463044FFF7C7FE0028A2DAA6E790
:103910004FF0FF3070474FF0FF30A0E74FF0FF301F
:103920009DE74FF0FF309AE74FF0FF3097E730B553
:1039300083B004460D4601921046FFF713FF00289E
:1039400004DB01AA29462046FFF735FF03B030BD4E
:1039500020B370B584B00646002922DBB2F5000F13
:1039600022D28818B0F5000F21D215460C464FF030
:10397000807302934FF4005301934FF480630093DC
:103980004FF48073082229460B20FFF71BFE2146C7
:103990003046FFF743FE002004B070BD4FF0FF300B
:1039A00070474FF0FF30F7E74FF0FF30F4E74FF08C
:1039B000FF30F1E700F17840B0F5802F01D2C00A66
:1039C00070474FF0FF3070470B4B1A684FF6FF738C
:1039D0009A4209D0094B03EA822303F10063834230
:1039E00005D8C01AC00A70474FF00163F7E700F12D
:1039F0007840C00A704700BFE075FF1F00FC3F0021
:103A0000D8B170B5064600291ADBB1F5802F1AD25D
:103A100015460C461046FFF7D7FFB0F1FF3F15D013
:103A20006019FFF7D1FFB0F1FF3F12D022462946BF
:103A3000304600F011F9002070BD4FF0FF307047A4
:103A40004FF0FF30F8E74FF0FF30F5E74FF0FF3071
:103A5000F2E74FF0FF30EFE7B1F5802F27D270B5D6
:103A60000D460646FDF73EFD20BB3046FFF7ACFF96
:103A70000446A819FFF7A8FF0546B4F1FF3F1CD084
:103A8000B0F1FF3F1CD0104BB3221A6104E00121BA
:103A90002046FEF7B9FD0134AC42F8D90A4A536911
:103AA00023F002035361FDF735FD002070BD4FF098
:103AB000FF3070474FF0FF30F8E74FF0FF30F5E789
:103AC0004FF0FF30F2E700BF00200240002846D050
:103AD0002DE9F0478046002A44D0002945DBB1F5A6
:103AE000802F45D292460F46D2F800904846FFF705
:103AF00061FFB0F1FF3F3ED007EB0900FFF75AFF2F
:103B0000B0F1FF3F3AD0224B9A6942F000429A61ED
:103B10004CF2FA321A61FDF7E5FC0024BC4214DADB
:103B200004EB090508EB0406D6E90023294600202A
:103B3000FDF742FD28BBD6E90001D5E900239942F3
:103B400008BF904220D10834E8E7DAF800301F447B
:103B5000CAF80070FDF7DEFC0020BDE8F0874FF0EA
:103B6000FF3070474FF0FF30F7E74FF0FF30F4E7DA
:103B70004FF0FF30F1E74FF0FF30EEE74FF0FF304E
:103B8000EBE74FF0FF30E8E74FF0FF30E5E700BF2D
:103B90000020024008B5FDF7BDFC08BDDFF834D0B9
:103BA000002103E00C4B5B58435004310B480C4B95
:103BB00042189A42F6D30B4A02E0002342F8043B33
:103BC000094B9A42F9D3FDF747FC00F011F8FDF7D5
:103BD000B5F9FEE70000012000AD0008000000205C
:103BE000B0000020B000002070020020FEE70000BE
:103BF00070B50D4E0D4CA41BA4100025A54209D193
:103C00000B4E0C4C04F052FEA41BA4100025A54240
:103C100005D170BD56F8253098470135EEE756F8C6
:103C2000253098470135F2E7F0AC0008F0AC000809
:103C3000F0AC0008F4AC0008024B0146186800F034
:103C40006DB800BF34000020024B0146186800F038
:103C500017B800BF3400002010B5431E0A4491423B
:103C600000D110BD11F8014B03F8014FF7E70244F2
:103C70000346934200D1704703F8011BF9E70000A7
:103C800038B50546002945D051F8043C0C1F002BDF
:103C9000B8BFE41800F0C6FB1F4A1368104633B9DA
:103CA000636014602846BDE8384000F0BCBBA34206
:103CB0000CD921686218934204BF1A685B6863607C
:103CC00004BF521822600460ECE713465A680AB138
:103CD000A242FAD919685818A0420BD120680144B1
:103CE000581882421960DDD1106852685A60014448
:103CF0001960D7E702D90C232B60D3E7206821187D
:103D00008A4204BF11685268626004BF09182160CA
:103D10005C60C7E738BD00BFEC00002070B5CD1C6B
:103D200025F0030508350C2D38BF0C25002D06465F
:103D300001DBA94203D90C233360002070BD00F0E1
:103D400071FB214A1468214691B9204C23681BB9A4
:103D5000304600F0B9F820602946304600F0B4F84B
:103D6000431C24D10C233360304600F05CFBE4E7B5
:103D70000B685B1B18D40B2B0FD90B60CD50CC18E4
:103D8000304600F050FB04F10B00231D20F007002B
:103D9000C31AD3D05A42E250D0E78C424B6816BFC8
:103DA000636013600C46EBE70C464968CCE7C41C23
:103DB00024F00304A04205D0211A304600F084F814
:103DC0000130CFD02560DBE7EC000020F0000020C0
:103DD0000FB40A4B13B51C6824B1A36913B920466C
:103DE00000F032FA05AB049AA1680193204600F076
:103DF00045FB02B0BDE8104004B07047340000201D
:103E000070B50E46054618B183690BB900F01CFA6F
:103E1000AB69AC6813B9284600F016FA234B9C42F4
:103E200017D16C68A3891B071DD52369DBB1013E3F
:103E3000A36816F8011F013BA360E9B9002B2EDA35
:103E400022460A21284600F04FF8013011D00A20FE
:103E500011E0174B9C4201D1AC68E3E7154B9C4243
:103E600008BFEC68DEE72146284600F08FF80028FE
:103E7000DDD04FF0FF3070BD002B04DAA2699A420A
:103E800006DC0A2904D023685A1C22601970CFE787
:103E90002246284600F028F80130C9D1E9E7236816
:103EA0000A205A1C22601870E5E700BF7C8F0008CA
:103EB0009C8F00085C8F0008024B01461868FFF7D2
:103EC0009FBF00BF3400002038B5064C00230546D4
:103ED0000846236000F044FE431C02D1236803B16E
:103EE0002B6038BD10020020F8B50E46144605467A
:103EF00018B183690BB900F0A7F9214B9C422AD174
:103F00006C68A369A360A3891A072ED5236963B3DC
:103F100023692068C01A6369F6B28342374604DC1D
:103F20002146284600F026F928BBA368013BA36080
:103F300023685A1C22601E7063690130834204D0DA
:103F4000A389DB0719D50A2E17D12146284600F090
:103F500011F990B10FE00B4B9C4201D1AC68D0E756
:103F6000094B9C4208BFEC68CBE72146284600F08D
:103F70000DF80028CCD04FF0FF373846F8BD00BF11
:103F80007C8F00089C8F00085C8F0008324B70B556
:103F90001D6806460C4625B1AB6913B9284600F0EA
:103FA00053F92E4B9C420FD16C68B4F90C309AB285
:103FB00015072CD4D00611D40922326043F04003F7
:103FC000A3814FF0FF303EE0254B9C4201D1AC680D
:103FD000EBE7244B9C4208BFEC68E6E7510712D59B
:103FE000616B41B104F14403994202D03046FFF7BE
:103FF00047FE00236363A38923F02403A3810023E6
:10400000636023692360A38943F00803A3812369C4
:104010004BB9A38903F42073B3F5007F03D0214685
:10402000304600F0BFF9A28912F001030CD0002342
:10403000A36063695B42A361236953B9B4F90C308F
:1040400013F08000BAD170BD920758BF6369A360B6
:10405000F2E70020F7E700BF340000207C8F000863
:104060009C8F00085C8F00088A892DE9F041054685
:1040700010070C4658D44B68002B05DC0B6C002B4A
:1040800002DC0020BDE8F081E66A002EF9D00023B2
:1040900012F480522F68216A2B6032D0606DA389A0
:1040A0005A0705D56368C01A636B0BB1236CC01A3D
:1040B00000230246E66A216A2846B047431CA389CA
:1040C00006D129681D2948D8294ACA40D60744D5AF
:1040D00000226260D9042269226004D5421C01D109
:1040E0002B6803B96065616B2F600029C9D004F1AA
:1040F0004403994202D02846FFF7C2FD00206063C6
:10410000C0E701232846B047411CC8D12B68002BCB
:10411000C5D01D2B01D0162B01D12F60B1E7A3898B
:1041200043F04003A381ADE70F69002FA9D09307A7
:104130000E6808BF4B690F6018BF0023A6EB070885
:104140008B60B8F1000F9CDD43463A46216AA66AAF
:104150002846B047002806DCA38943F04003A3812A
:104160004FF0FF308EE70744A8EB0008E9E700BFF7
:104170000100402038B50B6905460C46DBB118B18B
:1041800083690BB900F060F80C4B9C4209D16C6854
:10419000B4F90C307BB121462846BDE83840FFF722
:1041A00063BF074B9C4201D1AC68F1E7054B9C42D1
:1041B00008BFEC68ECE7002038BD00BF7C8F00082A
:1041C0009C8F00085C8F0008002310B50446C0E9EE
:1041D0000033836081814366C281C0E90433836117
:1041E000194608225C30FFF742FD054B6362054B20
:1041F000A362054BE362054B2462236310BD00BF3D
:10420000B9490008DB490008134A0008374A00088A
:10421000014900F085B800BF7541000870B54A1E1D
:10422000682555430E4605F17401FFF777FD0446F6
:1042300040B10021C0E900160C30A06005F1680211
:10424000FFF715FD204670BD836910B5044633BBEA
:10425000C0E912330365124B124A1B68826298420E
:1042600004BF0123836100F01FF86060204600F066
:104270001BF8A060204600F017F80022E06004213F
:104280006068FFF7A1FF01220921A068FFF79CFFEA
:1042900002221221E068FFF797FF0123A36110BDFE
:1042A000588F000811420008F8B51B4B1E68B3690F
:1042B000074613B93046FFF7C7FF4836D6E9013441
:1042C000013B03D5336833B13668F7E7B4F90C50D6
:1042D0006DB16834F4E704213846FFF79FFF306082
:1042E0000028F1D10C233B6004462046F8BD0B4B5F
:1042F0006566C4E90055A560C4E90335C4E9055500
:104300000822294604F15C00FFF7B1FCC4E90D5511
:10431000C4E91255E9E700BF588F00080100FFFF0C
:104320002DE9F8438046894600F14804002614B977
:104330003046BDE8F883D4E90175013F01D5246812
:10434000F5E7AB89012B07D9B5F90E30013303D05E
:1043500029464046C84706436835EEE770B50E4625
:10436000B1F90E10002996B014461D4607DA002355
:104370002B60B3891A0610D44FF480630EE06A46AE
:1043800000F080FB0028F2DB019A02F47042A2F5F3
:1043900000535A425A412A60EEE74023002023602E
:1043A00016B070BD8B8973B59D0706460C4607D5C0
:1043B00004F14703236023610123636102B070BDF0
:1043C00001AB6A46FFF7CAFF009905463046FFF782
:1043D000A5FC48B9B4F90C309A05EFD423F00303D7
:1043E00043F00203A381E3E70D4BB362A38920608E
:1043F00043F08003A381009B6361019B20615BB15B
:10440000B4F90E10304600F04FFB28B1A38923F019
:10441000030343F00103A381A3891D43A581CDE7D5
:1044200011420008704770479368013B002B10B49D
:10443000936008DA9469A34201DB0A2903D15DF88D
:10444000044BFFF751BD1368581C106019700846E3
:104450005DF8044B7047F8B506460F461446D5186C
:10446000AC4201D1002007E03A4614F8011B304667
:10447000FFF7DAFF431CF3D1F8BD00002DE9F04F40
:104480000C469DB017461D46064618B183690BB908
:10449000FFF7DAFE7C4B9C4258D17468A389180759
:1044A0005ED52369002B5BD00023099320238DF870
:1044B000293030238DF82A3003954FF0010BB84690
:1044C000454615F8013B0BB1252B54D1B8EB070A33
:1044D0000BD053463A4621463046FFF7BCFF013029
:1044E00000F0C280099B5344099398F80030002BD8
:1044F00000F0BA8000234FF0FF32CDE9052304938A
:1045000007938DF853301A93A846052218F8011B1B
:104510005E48FBF75DFE049B78BBD90644BF2022B2
:104520008DF853201A0744BF2B228DF853202A7888
:104530002A2A2AD0079AA84600200A25414611F8BF
:10454000013B303B092B69D960B324E0504B9C42BE
:1045500001D1B468A2E74F4B9C4208BFF4689DE7C5
:1045600021463046FFF712FD00289DD04FF0FF3066
:104570001DB0BDE8F08FA846A2E7444A801A0BFAA6
:1045800000F0184304904546BEE7039A111D1268D7
:104590000391002A01DB079204E0524243F0020338
:1045A0000792049398F800302E2B0ED198F8013022
:1045B0002A2B38D1039B1A1D1B680392002BB8BF0E
:1045C0004FF0FF3308F102080593334D98F80010BF
:1045D00003222846FBF7FCFD40B14023401B03FAB1
:1045E00000F0049B034308F10108049398F80010BD
:1045F0002A488DF82810062208F10107FBF7E8FD8C
:10460000002837D0264B1BBB039B073323F007033F
:1046100008330393099B4B44099350E705FB02328F
:10462000012088468AE7002308F10108059319460E
:104630000A25404610F8012B303A092A03D9002BED
:10464000C3D00591C1E705FB012101238046F0E7B6
:1046500003AB00932246134B04A93046AFF300800E
:10466000B0F1FF3F8146D5D1A3895B063FF57EAF10
:1046700009987DE703AB009322460A4B04A9304614
:1046800000F088F8ECE700BF7C8F0008BC8F0008C2
:104690009C8F00085C8F0008C28F0008C68F00083E
:1046A00000000000574400082DE9F04791461F46DE
:1046B0008A680B69DDF820809342B8BF1346C9F8B9
:1046C000003091F8432006460C4612B10133C9F878
:1046D00000302368990642BFD9F800300233C9F888
:1046E0000030256815F0060507D104F1190AE368C2
:1046F000D9F800209B1AAB4228DC94F8433022689A
:10470000003318BF012392062DD404F14302394629
:104710003046C047013020D02368E568D9F8002032
:1047200003F00603042B08BFAD1AA36822690CBF6F
:1047300025EAE57500259342C4BF9B1AED184FF09A
:1047400000091A344D451AD1002008E001235246D1
:1047500039463046C047013003D14FF0FF30BDE845
:10476000F0870135C3E7E1185A1C302081F8430077
:10477000224494F8451082F843100233C5E7012320
:10478000224639463046C0470130E6D009F10109DA
:10479000D8E700002DE9F04301F1430C0C46097EF7
:1047A00085B06E291746064698460C9A00F0B380ED
:1047B00022D8632936D00AD8002900F0B9805829B8
:1047C00000F0838004F1420584F8421032E064294D
:1047D00001D06929F6D120681368050603F10401A8
:1047E0002AD51B681160002B03DA2D225B4284F866
:1047F00043206F480A2239E0732900F09D8008D8D1
:104800006F2920D07029DDD1236843F02003236075
:1048100003E0752917D07829D4D1782384F845305E
:10482000644855E01368191D1B68116004F14205C6
:1048300084F8423001238CE01B68116010F0400FB7
:1048400018BF1BB2CFE713682568181D1060280633
:1048500001D51B6802E06806FBD51B8854486F2908
:1048600014BF0A220822002184F843106568A5605D
:10487000002DC0F29580216821F004012160002BF9
:104880003DD1002D40F08E806546082A0BD123686B
:10489000DB0708D5236962689A42DEBF302305F83A
:1048A000013C05F1FF35ACEB05032361CDF8008039
:1048B0003B4603AA21463046FFF7F6FE01304DD1B4
:1048C0004FF0FF3005B0BDE8F083394884F845105B
:1048D000136821681D1D1B6815600A060BD5CA07E1
:1048E00044BF41F0200121601BB9226822F0200260
:1048F00022601022B7E74D0648BF9BB2EFE765463E
:10490000B3FBF2F102FB1133C35C05F8013D0B462A
:104910000029F5D1B9E7136825686169181D106091
:1049200028061B6801D5196002E06A06FBD51980CC
:10493000002323616546B9E71368191D11601D68DE
:10494000626800212846FBF743FC08B1401B606009
:1049500063682361002384F84330A7E723692A466C
:1049600039463046C0470130AAD023689B0713D48C
:10497000E068039B9842B8BF1846A3E701234A4664
:1049800039463046C04701309AD00135E368039A72
:104990009B1AAB42F2DCEBE7002504F11909F5E7BD
:1049A000002BACD1037884F8423004F142056CE767
:1049B000CD8F0008DE8F000810B50C46B1F90E103F
:1049C00000F094F80028ABBF636DA3891B1823F493
:1049D0008053ACBF6365A38110BD2DE9F0411F4634
:1049E0008B89DB0505460C46164605D502230022B9
:1049F000B1F90E1000F068F8A389B4F90E1023F491
:104A00008053A38132463B462846BDE8F04100F082
:104A100017B810B50C46B1F90E1000F055F8431C4C
:104A2000A38915BF606523F4805343F48053A381A9
:104A300018BFA38110BDB1F90E1000F013B800002B
:104A400038B5074C054608461146002222601A4632
:104A5000FCF7A0FC431C02D1236803B12B6038BDD6
:104A60001002002038B5064C002305460846236096
:104A700000F04EF8431C02D1236803B12B6038BD0F
:104A80001002002038B5074C0023054608461146A1
:104A9000236000F045F8431C02D1236803B12B606A
:104AA00038BD00BF1002002038B5064C0023054673
:104AB0000846236000F03CF8431C02D1236803B190
:104AC0002B6038BD1002002038B5074C054608465B
:104AD0001146002222601A4600F032F8431C02D12F
:104AE000236803B12B6038BD1002002038B5074C95
:104AF000054608461146002222601A4600F028F8B2
:104B0000431C02D1236803B12B6038BD1002002082
:104B1000024B58221A604FF0FF30704710020020FD
:104B2000024B58221A604FF0FF30704710020020ED
:104B3000024B58221A600020704700BF100200206C
:104B4000024B58221A604FF0FF30704710020020CD
:104B5000024B58221A604FF0FF30704710020020BD
:104B6000044A05491368002B08BF0B46184410601F
:104B700018467047F400002070020020B1B1002AEE
:104B800014DB6FEA000013D030B4013A094D0A4437
:104B9000013911F8014FC3B263408A4255F82330FE
:104BA00083EA1020F5D1C04330BC70470020704725
:104BB000C0437047F08F0008054B10B41C680A46CC
:104BC000A4460146002303205DF8044B604700BF64
:104BD000F8000020054B10B45C680A46A446014664
:104BE000002303205DF8044B604700BFF80000205D
:104BF000F0B585B0002301938DF803306AB31368D4
:104C00005BB355684DB31446154A0F4613601549FA
:104C1000154B5560064602A8CDE90213FEF7ACFB22
:104C2000C8B9FEF73FFC0546A8B90DF103030246DB
:104C300001A9FEF757FC9DF803304BB122463946D7
:104C40003046019B00F058F9003018BF0120454262
:104C5000284605B0F0BD054DFAE74FF0FF35F7E700
:104C6000F8000020B94B0008D54B0008F4FDFFFF09
:104C70002DE9F04393B0904C05460E4600200221EA
:104C80000DF113038DF812108DF81300CDE9050016
:104C90000790174607A905AA0DF11200FEF722FC9E
:104CA000A37D022B16D8854A9DF81330D2F80080D8
:104CB0001A46B8F1000F10D0814A059891689DF806
:104CC00012200193079B0390029300927D237D4A5B
:104CD0007D48C0479DF813301A46012B36D0022B71
:104CE0001AD00023032A4CD00EB1069A32600FB1BD
:104CF000059A3A6005B12B704FF00008404613B09A
:104D0000BDE8F08307990220FEF712FC9DF81320FE
:104D1000511E01291346E4D89DF81290B9F1010FF4
:104D20007DD043D3B9F1020F00F08D80A37D042B19
:104D30007AD8624B1C68002C76D0614B614A1969A5
:104D400062489523A0476FF40378D7E79DF81230A7
:104D5000012B30D0D6D3022BD4D0A37D042B6BD81B
:104D6000564B1C68002C67D0554B594A1969594855
:104D70006723A04700210320FEF7DAFB6FF40378D6
:104D8000BCE7A37D042B00F294804C4B1C68002CE4
:104D900000F08F804A4B4B4A19694F48DFF8508129
:104DA0009C23A047404613B0BDE8F083079A0692C3
:104DB0001A46022396E712A94FF0000841F8248D05
:104DC00008A8CDF82080FEF7BDFB444B099AD3F824
:104DD00000900AA943460220C8478046002834D1E3
:104DE0000AA9099A3E48FFF7C9FE089B98422CD1B0
:104DF000414606A800F014F98046C0B1A37D042BFB
:104E000008D82E4B1C682CB12D4B314A19693548F6
:104E10005A23A04700210320FEF78AFB6EE7069A7B
:104E200032B31A464B465DE76FF4037866E706999E
:104E30000220FEF77DFB69E700210320FEF778FBE7
:104E40006FF403785AE71A464BE7A37D042B19D871
:104E50001A4B1C68B4B11A4B1D4A19692248DFF875
:104E600094806023A04700210320FEF761FB45E703
:104E7000494606A800F0D4F8804650B94B469DF844
:104E800013202FE700210320FEF752FBDFF8648098
:104E900034E7A37D042B3FF631AF084B1C68002C90
:104EA0003FF42CAF064B074A196910488D23A047E1
:104EB00024E7DFF83C8021E72802002014020020CC
:104EC0009800002000940008109400083495000811
:104ED000F0930008D094000868950008F8000020BE
:104EE0006668665F709400089C940008049500084A
:104EF000F5FDFFFFF6FDFFFF2DE9F0413E4C0226D8
:104F000082B02361A675002847D00D46002935D010
:104F10004968002932D00646A86800282ED0DFF85C
:104F2000EC802F68C8F80070C8E90110D5E90101CC
:104F3000CDE9002301F006F8019B009A002B4BDD20
:104F4000002A39D01568002D36D05268002A33D097
:104F50002A4F19463046C7E9005200F003FF0546C4
:104F6000B8B1A37D042B14D8D8F800408CB1244BE1
:104F7000244A196924482923A0470AE0234B1C68C6
:104F8000A4B11F4B1F4A196921481523A0474FF0B0
:104F9000FF35284602B0BDE8F0811C4B1C682CB1DF
:104FA000174B184A19691B481123A0474FF0FF35CA
:104FB000284602B0BDE8F081A37D042BF6D8D8F8CE
:104FC0000040002CF2D00E4B0E4A196912482123E2
:104FD000A0474FF0FF35DCE7A37D042BE6D8D8F8D7
:104FE0000040002CE2D0064B064A19690B481B23EF
:104FF000A0474FF0FF35CCE7280200202002002018
:1050000098000020D0950008309700081402002076
:10501000909600085C960008FC960008C49600086C
:105020002DE9F04F714CA37D99B00022022B8046F0
:105030000D460D9209D86E4E366836B16D4B6E4AEC
:1050400099686E484FF4C273B0472946674802F02A
:1050500019FD8146B8B1A37D042B1CD903F0D8FB00
:10506000A37D022B0BD8624B1C6844B1614BCDF879
:1050700000909968604A624840F2A313A0474846EE
:1050800019B0BDE8F08F95B1B8F1000FE6D0A36874
:10509000C8F80030E2E7564B1D68002DDED0554BB6
:1050A000554A1969574840F28713A847D6E7DFF8F1
:1050B00078A12369DAF81010E2689AF90000CD1897
:1050C000013DA37D95FBF1F501FB0525F8B1DAF86B
:1050D0000C2095421BDD042B16D8454F3E689EB12F
:1050E000D4E90132DAF80C00DFF80881D8F81010A2
:1050F000CDE90232CDE9000540F27113424A43483E
:10510000B047A37D042B64D94FF0FF39A6E762684E
:10511000DAF804109142DEDBA168DAF80800884270
:10512000D9DB022B40D8324ED6F800B0BBF1000FCD
:105130003AD0304F0191B9683548009240F275136A
:10514000314AD847A37D022B2ED8D6F800B0BBF148
:10515000000F29D02369B9682B4A2E48CDE90035C4
:1051600040F27713D847A37D022B1DD83568DDB1F7
:105170002069D7F808B0FBF7CDF90022264BFBF7E2
:1051800033FA0646A0680F46FBF7C4F902460B4601
:1051900030463946FBF752FB40F27913CDE9000166
:1051A000194A1E485946A8470DA802F077FEA37D6C
:1051B000054600283AD0042B16D80D4B1E689EB128
:1051C0000C4B0D4A1969164840F28D13A946B04799
:1051D00044E73D68002D97D0D8F81010064A1148D2
:1051E00040F28B13A8478FE7A94637E72802002033
:1051F00014020020980000204C9600087C970008BC
:1052000004A20008A89700083C960008D897000858
:10521000509800088898000800005940C898000875
:1052200024990008F498000840020020012B40F265
:105230007D84CDE908980023DFF898B20593A36830
:10524000059A934240F3D083A37D012B40F2B180B5
:105250000D9B002B40F3A5804FF0000913A80122FD
:10526000022102F0B3FBA37D054600284DD0042B9C
:1052700008D8924B1E682EB17A23914ADBF81010A1
:105280009048B047B9F1000F00F084808E4F386825
:10529000002800F09E808D4E8D4D3268296800F008
:1052A000FFFD002800F07583A37D042B08D8834BF5
:1052B0001D682DB1874B884A196988483C23A84747
:1052C00000210846032202F081FB6FF40075A37DE4
:1052D000042B89D8794E376857B17E4B804A1969BB
:1052E000804840F24713B847A37D042B3FF67CAFBC
:1052F0003668002E3FF478AF764B7B4A19697B48BD
:1053000040F29313A946B047A8E6139F002B40F044
:1053100081806A4B1D68002D7CD0DBF80010684A44
:1053200000977C237248A847139F4E46DFF8908170
:105330007B1E022214A81393002F47D094F9143037
:10534000002B0CBF0221042102F040FB02220028A6
:1053500040F0C98194F91530002B0CBF02210421C3
:1053600015A802F033FB86234246002840F0CD8189
:10537000A17D604849B951490D6835B1159FDBF8E9
:1053800000100197149F0097A847002E40F0F48169
:10539000139FCDE74F4603224946384602F016FBDD
:1053A00095E79AF9003013F1000918BF4FF0010991
:1053B00054E7424B1D68002D3FF44AAF40F23D13C5
:1053C000474ADBF804104C48A84741E7002E7FF419
:1053D0005DAF00210846032202F0F8FAA37D012BFD
:1053E00040F2BA8004210EA802F0BEFAA37D054661
:1053F00090B1042B3FF6F8AE304E3768002F3FF4E3
:1054000077AF344B364A19693C4840F24B13B847E2
:10541000A37D6AE74E4689E7012B0E9F40F2C282C8
:105420007B1E0E93002F00F01E82DDF834800027D3
:105430004646B846002312A80F9303F063F900B361
:10544000A37D042B054608D81C4B1E682EB1214BAA
:105450002B4A19692B48F623B04703F033F9A37D93
:10546000042B3FF6C1AE154E3768002F3FF440AF16
:10547000184B1B4A196924484FF4AA73B847A37DF7
:1054800033E7002E129804DC9AF90030002B40F02C
:10549000238110A902F0B0FF002839D0A37D042B8E
:1054A0000546DAD8054B1E68002ED6D0094B144AA3
:1054B00019691648FF23B047CFE700BF1402002048
:1054C000F0950008A89900080001002004010020C0
:1054D0000801002098000020E4950008689B00085F
:1054E00028960008989B00084C9600088CA100089C
:1054F000E09900086C9A000878990008F09B000871
:1055000014960008589C0008E0A00008B49C00080D
:10551000A37D4BB9864B1D6835B14FF48073854A26
:10552000DBF800108448A8470121002003F0D2F8DE
:105530000FA803F061F9E0B1A37D042B05468CD8D8
:105540007B4B1E68002E88D07C4B7A4A19697C48B8
:1055500040F20513B04780E7754B1D68002D3FF4FE
:1055600041AF4FF4A473774ADBF804107648A8479C
:1055700038E7DFF8C09107960746109B5A1E109235
:10558000002B00F0418100210DF1330003F0A2F85F
:10559000002840F0B982A27D9DF8336062B9644B67
:1055A0001D684DB1DBF800106848009640F20B13FF
:1055B0004A46A8479DF83360022E2DD194F9153044
:1055C000002B0CBF0221042111A803F0DBF80028F6
:1055D00040F0CC82A37D119A73B9554B1D68002D04
:1055E00000F0F182DBF80010594800924FF4887304
:1055F0004A46A847A37D119A1744002BBDD14C4BB6
:105600001D68002DB9D0DBF80010524800974FF408
:105610008C734A46A847B0E70F9B0693002E44D1EF
:1056200094F91520002A0CBF0221042113A803F0CD
:10563000A9F8E8B1A37D042B05463FF60EAF3C4E1A
:10564000376837B13D4B444A19694448AD23B847E0
:10565000A37D042B3FF601AF3668002E3FF4FDAE6C
:10566000364B344A19693E484FF48B73B047F4E621
:1056700094F91420002A0CBF0221042114A803F07D
:1056800081F8002800F01381A37D042B05463FF626
:10569000E4AE274E3768002FDBD0284B2E4A19691D
:1056A0003048AF23B847A37DD3E715A802F026FE04
:1056B000002800F02781A37D042B05463FF6CDAEE0
:1056C0001B4E3768002FC4D01C4B234A196926484B
:1056D000B523B847A37DBCE702F074FA002840F078
:1056E00070811298D5E6A37D042BB14605463FF69E
:1056F000C9AD0F4B1E68002E3FF4C4AD81231B4A79
:10570000DBF810101A48B047BCE5A37D042BB14666
:1057100005463FF6B7AD064B1E68002E3FF4B2AD0E
:105720008423124ADBF810101248B047AAE500BFE4
:105730001402002014960008E89C0008980000203D
:105740001C9D000828960008C49B0008789D00084E
:10575000D49D0008D09F000800960008A89D00086E
:10576000989F0008049E00086C9E0008F0950008B1
:10577000149A0008409A00089F4DA04B2968159A7A
:10578000186806909142C0F288821499069807938F
:1057900000F01EFB079B002840F09182984A079278
:1057A000D2F80080DDF854902768B8F1000F00F0BF
:1057B000CD81944B0A931A6809EB0205BD4208EBB0
:1057C000020040F34181BD1A2A460699FEF744FAC9
:1057D00022680A9B0A95BA421F6000F04181A945E0
:1057E0000B9340F3FF800A9A069B13441946079BCC
:1057F000A9EB05052A461868FEF72EFA0B9B139FA6
:105800001A6815441D6091E5A27D079E129B5AB946
:105810007D4A156845B1DBF800107C4A00937C484E
:105820004FF48D73A847129B2268002E03FB02F1F0
:1058300040F3CB81A3685F1A9742A8BF174602F0D6
:1058400041FFA37D012BB84440F23681DDE90D63B1
:10585000013E5A1ECDE90D62002B7FF4EBAD059B96
:10586000434447460593A37D012B3FF6E8AC664BC6
:105870001D68002D3FF4E3AC4FF4AE73654ADBF8CE
:1058800004106548A847A37D012B3FF6D8AC5E4BBA
:105890001D68002D3FF4D3AC059BDBF804105F4A74
:1058A0005F48CDE9007340F29713A847C7E4139A05
:1058B000A17D104671B9544B1D68002D00F0DB81AD
:1058C000149BDBF800105748CDE90023564AB0235B
:1058D000A847139A484B5968914280F24181A37DB1
:1058E000042B00F29281484E3568002D00F08D8126
:1058F0004E4B4D4A19694E48C123A8476FF0010528
:10590000A37DA6E69AF90020002A00F0FA80179AF3
:1059100021680A441492A17D169A139279B93A4BE0
:105920001D681046002D00F0A681149BDBF80010C6
:105930004048CDE900233C4ABB23A847139A2E4B8D
:1059400059688A42CBDC2D491B680D6814991D44A7
:105950009AF90030002B40F01B81284600F038FAFD
:10596000002800F0B880A37D042B00F29381264E1E
:105970003768002F00F08E812C4B139A1969149B05
:105980002D482E4DCDE90032CD23274AB847A37DBF
:105990005FE6236838600146032230602B6002F026
:1059A00015F81BE5184B1D68002D3FF439ADDBF8E9
:1059B0000410184A009740F24D132148A8470E9F43
:1059C0002EE5A37D042B05463FF647AD0E4B1E6822
:1059D000002E3FF442AD154B0C4A19691948FB23C0
:1059E000B0473AE5139FA1E4DDE90898B8F1000F4C
:1059F0007FF44DABFFF732BB680200203C01002072
:105A00000001002004010020140200201496000868
:105A1000FC9F00082896000860A100084C9600082A
:105A2000BCA10008309E00080096000898000020E5
:105A3000D89E0008989E00080C9F0008FCFDFFFF00
:105A4000289C0008889C00084A460699FEF704F93D
:105A500027680A9BCDF82890BD421D60C2D14D46F3
:105A60000B93A44B3A461968404600F019FA0B9B79
:105A7000002800F0C380A37D079F042B3FF607ACEE
:105A80009D4B1D68002D3FF402AC5A239B4ADBF866
:105A900010109B48A847A37D042B3FF6F8AB964B0C
:105AA0001D68002D3FF4F3AB9523964ADBF81010E8
:105AB0009548A847FFF7EBBB8F4B1D68002D3FF4BF
:105AC000C5AEDBF80410914A9148CDE900784FF457
:105AD000AC73A847BAE6139B002B0FDD069B791E1B
